{
  "contractName": "BaseData",
  "abi": [
    {
      "constant": true,
      "inputs": [
        {
          "internalType": "uint256",
          "name": "",
          "type": "uint256"
        }
      ],
      "name": "AllOrderList",
      "outputs": [
        {
          "internalType": "uint256",
          "name": "",
          "type": "uint256"
        }
      ],
      "payable": false,
      "stateMutability": "view",
      "type": "function"
    },
    {
      "constant": true,
      "inputs": [
        {
          "internalType": "uint256",
          "name": "",
          "type": "uint256"
        },
        {
          "internalType": "uint256",
          "name": "",
          "type": "uint256"
        }
      ],
      "name": "PeopleNumRateTheStar",
      "outputs": [
        {
          "internalType": "uint256",
          "name": "",
          "type": "uint256"
        }
      ],
      "payable": false,
      "stateMutability": "view",
      "type": "function"
    },
    {
      "constant": true,
      "inputs": [
        {
          "internalType": "string",
          "name": "",
          "type": "string"
        },
        {
          "internalType": "uint256",
          "name": "",
          "type": "uint256"
        }
      ],
      "name": "cityNameToStoreList",
      "outputs": [
        {
          "internalType": "uint256",
          "name": "",
          "type": "uint256"
        }
      ],
      "payable": false,
      "stateMutability": "view",
      "type": "function"
    },
    {
      "constant": true,
      "inputs": [
        {
          "internalType": "uint256",
          "name": "",
          "type": "uint256"
        }
      ],
      "name": "orderIDToOrder",
      "outputs": [
        {
          "internalType": "uint256",
          "name": "setTime",
          "type": "uint256"
        },
        {
          "internalType": "uint256",
          "name": "orderID",
          "type": "uint256"
        },
        {
          "internalType": "uint256",
          "name": "storeID",
          "type": "uint256"
        },
        {
          "internalType": "uint256",
          "name": "tipsValueMultiplicand",
          "type": "uint256"
        },
        {
          "internalType": "uint256",
          "name": "userToDeliverymanScore",
          "type": "uint256"
        },
        {
          "internalType": "uint256",
          "name": "deliverymanToUserScore",
          "type": "uint256"
        },
        {
          "internalType": "uint256",
          "name": "userToStoreScore",
          "type": "uint256"
        },
        {
          "internalType": "bool",
          "name": "isConfirmed",
          "type": "bool"
        },
        {
          "internalType": "bool",
          "name": "isDelivering",
          "type": "bool"
        },
        {
          "internalType": "bool",
          "name": "isDelivered",
          "type": "bool"
        },
        {
          "internalType": "bool",
          "name": "isReceived",
          "type": "bool"
        },
        {
          "internalType": "address",
          "name": "userAddr",
          "type": "address"
        },
        {
          "internalType": "address",
          "name": "deliverymanAddr",
          "type": "address"
        }
      ],
      "payable": false,
      "stateMutability": "view",
      "type": "function"
    },
    {
      "constant": true,
      "inputs": [],
      "name": "orderid",
      "outputs": [
        {
          "internalType": "uint256",
          "name": "",
          "type": "uint256"
        }
      ],
      "payable": false,
      "stateMutability": "view",
      "type": "function"
    },
    {
      "constant": true,
      "inputs": [
        {
          "internalType": "uint256",
          "name": "",
          "type": "uint256"
        },
        {
          "internalType": "uint256",
          "name": "",
          "type": "uint256"
        }
      ],
      "name": "storeIDToOrder",
      "outputs": [
        {
          "internalType": "uint256",
          "name": "",
          "type": "uint256"
        }
      ],
      "payable": false,
      "stateMutability": "view",
      "type": "function"
    },
    {
      "constant": true,
      "inputs": [
        {
          "internalType": "uint256",
          "name": "",
          "type": "uint256"
        }
      ],
      "name": "storeIDToStore",
      "outputs": [
        {
          "internalType": "uint256",
          "name": "storeID",
          "type": "uint256"
        },
        {
          "internalType": "address",
          "name": "ownerAddress",
          "type": "address"
        },
        {
          "internalType": "string",
          "name": "storeName",
          "type": "string"
        },
        {
          "internalType": "string",
          "name": "cityName",
          "type": "string"
        },
        {
          "internalType": "string",
          "name": "moreInfo",
          "type": "string"
        },
        {
          "internalType": "string",
          "name": "menu",
          "type": "string"
        }
      ],
      "payable": false,
      "stateMutability": "view",
      "type": "function"
    },
    {
      "constant": true,
      "inputs": [],
      "name": "storeid",
      "outputs": [
        {
          "internalType": "uint256",
          "name": "",
          "type": "uint256"
        }
      ],
      "payable": false,
      "stateMutability": "view",
      "type": "function"
    }
  ],
  "bytecode": "0x60806040526000600655600060075534801561001a57600080fd5b50610a2e8061002a6000396000f3fe608060405234801561001057600080fd5b50600436106100885760003560e01c80639a2ef43c1161005b5780639a2ef43c1461041a578063c43ac47614610466578063d36f228414610484578063ee4519a7146104c657610088565b806353a95c6c1461008d578063609406b2146100d95780636c78029a146100f757806377d7fb721461031c575b600080fd5b6100c3600480360360408110156100a357600080fd5b81019080803590602001909291908035906020019092919050505061059f565b6040518082815260200191505060405180910390f35b6100e16105c4565b6040518082815260200191505060405180910390f35b6101236004803603602081101561010d57600080fd5b81019080803590602001909291905050506105ca565b604051808781526020018673ffffffffffffffffffffffffffffffffffffffff1673ffffffffffffffffffffffffffffffffffffffff16815260200180602001806020018060200180602001858103855289818151815260200191508051906020019080838360005b838110156101a757808201518184015260208101905061018c565b50505050905090810190601f1680156101d45780820380516001836020036101000a031916815260200191505b50858103845288818151815260200191508051906020019080838360005b8381101561020d5780820151818401526020810190506101f2565b50505050905090810190601f16801561023a5780820380516001836020036101000a031916815260200191505b50858103835287818151815260200191508051906020019080838360005b83811015610273578082015181840152602081019050610258565b50505050905090810190601f1680156102a05780820380516001836020036101000a031916815260200191505b50858103825286818151815260200191508051906020019080838360005b838110156102d95780820151818401526020810190506102be565b50505050905090810190601f1680156103065780820380516001836020036101000a031916815260200191505b509a505050505050505050505060405180910390f35b6103486004803603602081101561033257600080fd5b8101908080359060200190929190505050610886565b604051808e81526020018d81526020018c81526020018b81526020018a8152602001898152602001888152602001871515151581526020018615151515815260200185151515158152602001841515151581526020018373ffffffffffffffffffffffffffffffffffffffff1673ffffffffffffffffffffffffffffffffffffffff1681526020018273ffffffffffffffffffffffffffffffffffffffff1673ffffffffffffffffffffffffffffffffffffffff1681526020019d505050505050505050505050505060405180910390f35b6104506004803603604081101561043057600080fd5b810190808035906020019092919080359060200190929190505050610960565b6040518082815260200191505060405180910390f35b61046e61098e565b6040518082815260200191505060405180910390f35b6104b06004803603602081101561049a57600080fd5b8101908080359060200190929190505050610994565b6040518082815260200191505060405180910390f35b610589600480360360408110156104dc57600080fd5b81019080803590602001906401000000008111156104f957600080fd5b82018360208201111561050b57600080fd5b8035906020019184600183028401116401000000008311171561052d57600080fd5b91908080601f016020809104026020016040519081016040528093929190818152602001838380828437600081840152601f19601f820116905080830192505050505050509192919290803590602001909291905050506109b5565b6040518082815260200191505060405180910390f35b6004602052816000526040600020602052806000526040600020600091509150505481565b60075481565b60006020528060005260406000206000915090508060000154908060010160009054906101000a900473ffffffffffffffffffffffffffffffffffffffff1690806002018054600181600116156101000203166002900480601f0160208091040260200160405190810160405280929190818152602001828054600181600116156101000203166002900480156106a25780601f10610677576101008083540402835291602001916106a2565b820191906000526020600020905b81548152906001019060200180831161068557829003601f168201915b505050505090806003018054600181600116156101000203166002900480601f0160208091040260200160405190810160405280929190818152602001828054600181600116156101000203166002900480156107405780601f1061071557610100808354040283529160200191610740565b820191906000526020600020905b81548152906001019060200180831161072357829003601f168201915b505050505090806004018054600181600116156101000203166002900480601f0160208091040260200160405190810160405280929190818152602001828054600181600116156101000203166002900480156107de5780601f106107b3576101008083540402835291602001916107de565b820191906000526020600020905b8154815290600101906020018083116107c157829003601f168201915b505050505090806005018054600181600116156101000203166002900480601f01602080910402602001604051908101604052809291908181526020018280546001816001161561010002031660029004801561087c5780601f106108515761010080835404028352916020019161087c565b820191906000526020600020905b81548152906001019060200180831161085f57829003601f168201915b5050505050905086565b60016020528060005260406000206000915090508060000154908060010154908060020154908060050154908060060154908060070154908060080154908060090160009054906101000a900460ff16908060090160019054906101000a900460ff16908060090160029054906101000a900460ff16908060090160039054906101000a900460ff16908060090160049054906101000a900473ffffffffffffffffffffffffffffffffffffffff169080600a0160009054906101000a900473ffffffffffffffffffffffffffffffffffffffff1690508d565b6002602052816000526040600020818154811061097957fe5b90600052602060002001600091509150505481565b60065481565b600581815481106109a157fe5b906000526020600020016000915090505481565b60038280516020810182018051848252602083016020850120818352809550505050505081815481106109e457fe5b9060005260206000200160009150915050548156fea265627a7a723158202cc259e243ed6cc3ce4b8d3e8b3012360f7039160cb02dffe16b613a2e6e73ca64736f6c63430005100032",
  "source": "pragma solidity ^0.5.0;\r\n// pragma experimental ABIEncoderV2;\r\n\r\ncontract BaseData{\r\n    // store active time ?\r\n    struct Store {\r\n        uint                storeID;            \r\n        address             ownerAddress;\r\n        string              storeName;     // array, struct, string parameters in a function need to be stored in \"memory\"\r\n        string              cityName;\r\n        string              moreInfo;\r\n        string              menu;       \r\n    }\r\n    \r\n    // We can assign the limited 16 variables\r\n    struct Order {\r\n        uint      setTime;\r\n        uint      orderID;                 // Will be recycled if over 2^64\r\n        uint      storeID;                 // Will be recycled if over 2^64\r\n        uint[]    itemsID;                 // Expect a store only has 65536 items available\r\n        uint[]    itemsNumber;\r\n        uint      tipsValueMultiplicand;   // That is, their are only 65536 number of tip available\r\n        uint      userToDeliverymanScore;                   \r\n        uint      deliverymanToUserScore;\r\n        uint      userToStoreScore;\r\n        bool      isConfirmed;\r\n        bool      isDelivering;\r\n        bool      isDelivered;\r\n        bool      isReceived;\r\n        address   userAddr;\r\n        address   deliverymanAddr;\r\n    }\r\n    \r\n    mapping (uint => Store)                      public storeIDToStore;      \r\n    mapping (uint => Order)                      public orderIDToOrder;\r\n    mapping (uint => uint[])                     public storeIDToOrder;       // => Order[] --> => uint[]\r\n    mapping (string => uint[])                   public cityNameToStoreList;  // => Store[] is not supported (struct dynamic array) --> => uint[]\r\n    mapping (uint => mapping (uint => uint))     public PeopleNumRateTheStar; // storeID to its rate, e.g. 1 star: 20 people, ..., 5 star: 1 people\r\n    \r\n    uint[] public AllOrderList;   // Order[] --> uint[]  \r\n    uint   public storeid = 0;\r\n    uint   public orderid = 0; \r\n\r\n}",
  "sourcePath": "D:\\OneDrive\\NTUEE_122nd\\網多實驗\\final_project\\FooDapp\\contracts\\BaseData.sol",
  "compiler": {
    "name": "solc",
    "version": "0.5.16+commit.9c3226ce.Emscripten.clang"
  },
  "schemaVersion": "3.4.0",
  "updatedAt": "2021-06-04T14:58:18.506Z",
  "devdoc": {
    "methods": {}
  },
  "userdoc": {
    "methods": {}
  }
}