{
  "contractName": "OrderContract",
  "abi": [
    {
      "anonymous": false,
      "inputs": [
        {
          "indexed": false,
          "internalType": "address",
          "name": "addr",
          "type": "address"
        },
        {
          "indexed": false,
          "internalType": "uint256",
          "name": "orderID",
          "type": "uint256"
        },
        {
          "indexed": false,
          "internalType": "uint256",
          "name": "score",
          "type": "uint256"
        }
      ],
      "name": "DeliverymanBeenRated",
      "type": "event"
    },
    {
      "anonymous": false,
      "inputs": [
        {
          "indexed": false,
          "internalType": "uint256",
          "name": "setTime",
          "type": "uint256"
        },
        {
          "indexed": false,
          "internalType": "uint256",
          "name": "orderID",
          "type": "uint256"
        },
        {
          "indexed": false,
          "internalType": "uint256",
          "name": "storeID",
          "type": "uint256"
        },
        {
          "indexed": false,
          "internalType": "uint256[]",
          "name": "itemsID",
          "type": "uint256[]"
        },
        {
          "indexed": false,
          "internalType": "uint256[]",
          "name": "itemsNumber",
          "type": "uint256[]"
        },
        {
          "indexed": false,
          "internalType": "uint256",
          "name": "tips",
          "type": "uint256"
        }
      ],
      "name": "NewOrderBasic",
      "type": "event"
    },
    {
      "anonymous": false,
      "inputs": [
        {
          "indexed": false,
          "internalType": "bool",
          "name": "isConfirmed",
          "type": "bool"
        },
        {
          "indexed": false,
          "internalType": "bool",
          "name": "isDelivering",
          "type": "bool"
        },
        {
          "indexed": false,
          "internalType": "bool",
          "name": "isDelivered",
          "type": "bool"
        },
        {
          "indexed": false,
          "internalType": "bool",
          "name": "isReceived",
          "type": "bool"
        },
        {
          "indexed": false,
          "internalType": "address",
          "name": "userAddr",
          "type": "address"
        },
        {
          "indexed": false,
          "internalType": "address",
          "name": "deliveryAddr",
          "type": "address"
        }
      ],
      "name": "NewOrderBoolandAddr",
      "type": "event"
    },
    {
      "anonymous": false,
      "inputs": [
        {
          "indexed": false,
          "internalType": "uint256",
          "name": "d_score",
          "type": "uint256"
        },
        {
          "indexed": false,
          "internalType": "uint256",
          "name": "u_score",
          "type": "uint256"
        },
        {
          "indexed": false,
          "internalType": "uint256",
          "name": "s_score",
          "type": "uint256"
        }
      ],
      "name": "NewOrderScore",
      "type": "event"
    },
    {
      "anonymous": false,
      "inputs": [
        {
          "indexed": false,
          "internalType": "uint256",
          "name": "orderID",
          "type": "uint256"
        }
      ],
      "name": "OrderDelivered",
      "type": "event"
    },
    {
      "anonymous": false,
      "inputs": [
        {
          "indexed": false,
          "internalType": "uint256",
          "name": "orderID",
          "type": "uint256"
        }
      ],
      "name": "OrderDelivering",
      "type": "event"
    },
    {
      "anonymous": false,
      "inputs": [
        {
          "indexed": false,
          "internalType": "uint256",
          "name": "orderID",
          "type": "uint256"
        }
      ],
      "name": "OrderReceived",
      "type": "event"
    },
    {
      "anonymous": false,
      "inputs": [
        {
          "indexed": true,
          "internalType": "address",
          "name": "previousOwner",
          "type": "address"
        },
        {
          "indexed": true,
          "internalType": "address",
          "name": "newOwner",
          "type": "address"
        }
      ],
      "name": "OwnershipTransferred",
      "type": "event"
    },
    {
      "anonymous": false,
      "inputs": [
        {
          "indexed": false,
          "internalType": "address",
          "name": "addr",
          "type": "address"
        },
        {
          "indexed": false,
          "internalType": "uint256",
          "name": "orderID",
          "type": "uint256"
        },
        {
          "indexed": false,
          "internalType": "uint256",
          "name": "score",
          "type": "uint256"
        }
      ],
      "name": "StoreBeenRated",
      "type": "event"
    },
    {
      "anonymous": false,
      "inputs": [
        {
          "indexed": false,
          "internalType": "address",
          "name": "addr",
          "type": "address"
        },
        {
          "indexed": false,
          "internalType": "uint256",
          "name": "orderID",
          "type": "uint256"
        },
        {
          "indexed": false,
          "internalType": "uint256",
          "name": "score",
          "type": "uint256"
        }
      ],
      "name": "UserBeenRated",
      "type": "event"
    },
    {
      "constant": true,
      "inputs": [
        {
          "internalType": "uint256",
          "name": "",
          "type": "uint256"
        }
      ],
      "name": "AllOrderList",
      "outputs": [
        {
          "internalType": "uint256",
          "name": "",
          "type": "uint256"
        }
      ],
      "payable": false,
      "stateMutability": "view",
      "type": "function"
    },
    {
      "constant": true,
      "inputs": [
        {
          "internalType": "uint256",
          "name": "",
          "type": "uint256"
        },
        {
          "internalType": "uint256",
          "name": "",
          "type": "uint256"
        }
      ],
      "name": "PeopleNumRateTheStar",
      "outputs": [
        {
          "internalType": "uint256",
          "name": "",
          "type": "uint256"
        }
      ],
      "payable": false,
      "stateMutability": "view",
      "type": "function"
    },
    {
      "constant": true,
      "inputs": [
        {
          "internalType": "string",
          "name": "",
          "type": "string"
        },
        {
          "internalType": "uint256",
          "name": "",
          "type": "uint256"
        }
      ],
      "name": "cityNameToStoreList",
      "outputs": [
        {
          "internalType": "uint256",
          "name": "",
          "type": "uint256"
        }
      ],
      "payable": false,
      "stateMutability": "view",
      "type": "function"
    },
    {
      "constant": true,
      "inputs": [],
      "name": "isOwner",
      "outputs": [
        {
          "internalType": "bool",
          "name": "",
          "type": "bool"
        }
      ],
      "payable": false,
      "stateMutability": "view",
      "type": "function"
    },
    {
      "constant": true,
      "inputs": [
        {
          "internalType": "uint256",
          "name": "",
          "type": "uint256"
        }
      ],
      "name": "orderIDToOrder",
      "outputs": [
        {
          "internalType": "uint256",
          "name": "setTime",
          "type": "uint256"
        },
        {
          "internalType": "uint256",
          "name": "orderID",
          "type": "uint256"
        },
        {
          "internalType": "uint256",
          "name": "storeID",
          "type": "uint256"
        },
        {
          "internalType": "uint256",
          "name": "tipsValueMultiplicand",
          "type": "uint256"
        },
        {
          "internalType": "uint256",
          "name": "userToDeliverymanScore",
          "type": "uint256"
        },
        {
          "internalType": "uint256",
          "name": "deliverymanToUserScore",
          "type": "uint256"
        },
        {
          "internalType": "uint256",
          "name": "userToStoreScore",
          "type": "uint256"
        },
        {
          "internalType": "bool",
          "name": "isConfirmed",
          "type": "bool"
        },
        {
          "internalType": "bool",
          "name": "isDelivering",
          "type": "bool"
        },
        {
          "internalType": "bool",
          "name": "isDelivered",
          "type": "bool"
        },
        {
          "internalType": "bool",
          "name": "isReceived",
          "type": "bool"
        },
        {
          "internalType": "address",
          "name": "userAddr",
          "type": "address"
        },
        {
          "internalType": "address",
          "name": "deliverymanAddr",
          "type": "address"
        }
      ],
      "payable": false,
      "stateMutability": "view",
      "type": "function"
    },
    {
      "constant": true,
      "inputs": [],
      "name": "orderid",
      "outputs": [
        {
          "internalType": "uint256",
          "name": "",
          "type": "uint256"
        }
      ],
      "payable": false,
      "stateMutability": "view",
      "type": "function"
    },
    {
      "constant": true,
      "inputs": [],
      "name": "owner",
      "outputs": [
        {
          "internalType": "address",
          "name": "",
          "type": "address"
        }
      ],
      "payable": false,
      "stateMutability": "view",
      "type": "function"
    },
    {
      "constant": false,
      "inputs": [],
      "name": "renounceOwnership",
      "outputs": [],
      "payable": false,
      "stateMutability": "nonpayable",
      "type": "function"
    },
    {
      "constant": true,
      "inputs": [
        {
          "internalType": "uint256",
          "name": "",
          "type": "uint256"
        },
        {
          "internalType": "uint256",
          "name": "",
          "type": "uint256"
        }
      ],
      "name": "storeIDToOrder",
      "outputs": [
        {
          "internalType": "uint256",
          "name": "",
          "type": "uint256"
        }
      ],
      "payable": false,
      "stateMutability": "view",
      "type": "function"
    },
    {
      "constant": true,
      "inputs": [
        {
          "internalType": "uint256",
          "name": "",
          "type": "uint256"
        }
      ],
      "name": "storeIDToStore",
      "outputs": [
        {
          "internalType": "uint256",
          "name": "storeID",
          "type": "uint256"
        },
        {
          "internalType": "address",
          "name": "ownerAddress",
          "type": "address"
        },
        {
          "internalType": "string",
          "name": "storeName",
          "type": "string"
        },
        {
          "internalType": "string",
          "name": "cityName",
          "type": "string"
        },
        {
          "internalType": "string",
          "name": "moreInfo",
          "type": "string"
        },
        {
          "internalType": "string",
          "name": "menu",
          "type": "string"
        }
      ],
      "payable": false,
      "stateMutability": "view",
      "type": "function"
    },
    {
      "constant": true,
      "inputs": [],
      "name": "storeid",
      "outputs": [
        {
          "internalType": "uint256",
          "name": "",
          "type": "uint256"
        }
      ],
      "payable": false,
      "stateMutability": "view",
      "type": "function"
    },
    {
      "constant": false,
      "inputs": [
        {
          "internalType": "address",
          "name": "newOwner",
          "type": "address"
        }
      ],
      "name": "transferOwnership",
      "outputs": [],
      "payable": false,
      "stateMutability": "nonpayable",
      "type": "function"
    },
    {
      "constant": false,
      "inputs": [],
      "name": "withdraw",
      "outputs": [],
      "payable": false,
      "stateMutability": "nonpayable",
      "type": "function"
    },
    {
      "constant": false,
      "inputs": [
        {
          "internalType": "uint256",
          "name": "_orderID",
          "type": "uint256"
        },
        {
          "internalType": "uint256",
          "name": "_storeID",
          "type": "uint256"
        },
        {
          "internalType": "uint256[]",
          "name": "_itemsID",
          "type": "uint256[]"
        },
        {
          "internalType": "uint256[]",
          "name": "_itemsNumber",
          "type": "uint256[]"
        },
        {
          "internalType": "uint256",
          "name": "_tipsValueMultiplicand",
          "type": "uint256"
        }
      ],
      "name": "UserSetMyOrderPost",
      "outputs": [
        {
          "internalType": "uint256",
          "name": "",
          "type": "uint256"
        }
      ],
      "payable": true,
      "stateMutability": "payable",
      "type": "function"
    },
    {
      "constant": false,
      "inputs": [
        {
          "internalType": "uint256",
          "name": "_orderID",
          "type": "uint256"
        }
      ],
      "name": "SetOrderDelivering",
      "outputs": [],
      "payable": true,
      "stateMutability": "payable",
      "type": "function"
    },
    {
      "constant": false,
      "inputs": [
        {
          "internalType": "uint256",
          "name": "_orderID",
          "type": "uint256"
        }
      ],
      "name": "SetOrderDelivered",
      "outputs": [],
      "payable": false,
      "stateMutability": "nonpayable",
      "type": "function"
    },
    {
      "constant": false,
      "inputs": [
        {
          "internalType": "uint256",
          "name": "_orderID",
          "type": "uint256"
        }
      ],
      "name": "SetOrderReceived",
      "outputs": [],
      "payable": false,
      "stateMutability": "nonpayable",
      "type": "function"
    },
    {
      "constant": false,
      "inputs": [
        {
          "internalType": "uint256",
          "name": "_orderID",
          "type": "uint256"
        },
        {
          "internalType": "uint256",
          "name": "_userToStoreScore",
          "type": "uint256"
        }
      ],
      "name": "UserRateStore",
      "outputs": [],
      "payable": false,
      "stateMutability": "nonpayable",
      "type": "function"
    },
    {
      "constant": false,
      "inputs": [
        {
          "internalType": "uint256",
          "name": "_orderID",
          "type": "uint256"
        },
        {
          "internalType": "uint256",
          "name": "_userToDeliverymanScore",
          "type": "uint256"
        }
      ],
      "name": "UserRateDeliveryman",
      "outputs": [],
      "payable": false,
      "stateMutability": "nonpayable",
      "type": "function"
    },
    {
      "constant": false,
      "inputs": [
        {
          "internalType": "uint256",
          "name": "_orderID",
          "type": "uint256"
        },
        {
          "internalType": "uint256",
          "name": "_deliverymanToUserScore",
          "type": "uint256"
        }
      ],
      "name": "DeliverymanRateCustomer",
      "outputs": [],
      "payable": false,
      "stateMutability": "nonpayable",
      "type": "function"
    }
  ],
  "bytecode": "0x6080604052600060065560006007556040600955600954600a0a600a5533600860006101000a81548173ffffffffffffffffffffffffffffffffffffffff021916908373ffffffffffffffffffffffffffffffffffffffff160217905550600860009054906101000a900473ffffffffffffffffffffffffffffffffffffffff1673ffffffffffffffffffffffffffffffffffffffff16600073ffffffffffffffffffffffffffffffffffffffff167f8be0079c531659141344cd1fd0a4f28419497f9722a3daafe3b4186f6b6457e060405160405180910390a3611fff806100e96000396000f3fe60806040526004361061011f5760003560e01c806377d7fb72116100a05780639a2ef43c116100645780639a2ef43c1461080c578063c43ac47614610865578063d36f228414610890578063ee4519a7146108df578063f2fde38b146109c55761011f565b806377d7fb72146105365780638228a6351461064157806382fb232c146106865780638da5cb5b146107865780638f32d59b146107dd5761011f565b806353a95c6c116100e757806353a95c6c14610224578063609406b21461027d5780636180b9ee146102a85780636c78029a146102ed578063715018a61461051f5761011f565b80631f9c288e146101245780632ab3566c1461015f5780633ccfd60b146101a45780633e86b3f5146101bb5780634a9f9aa8146101f6575b600080fd5b34801561013057600080fd5b5061015d6004803603602081101561014757600080fd5b8101908080359060200190929190505050610a16565b005b34801561016b57600080fd5b506101a26004803603604081101561018257600080fd5b810190808035906020019092919080359060200190929190505050610aee565b005b3480156101b057600080fd5b506101b9610bf0565b005b3480156101c757600080fd5b506101f4600480360360208110156101de57600080fd5b8101908080359060200190929190505050610c57565b005b6102226004803603602081101561020c57600080fd5b8101908080359060200190929190505050610d2f565b005b34801561023057600080fd5b506102676004803603604081101561024757600080fd5b810190808035906020019092919080359060200190929190505050610dff565b6040518082815260200191505060405180910390f35b34801561028957600080fd5b50610292610e24565b6040518082815260200191505060405180910390f35b3480156102b457600080fd5b506102eb600480360360408110156102cb57600080fd5b810190808035906020019092919080359060200190929190505050610e2a565b005b3480156102f957600080fd5b506103266004803603602081101561031057600080fd5b8101908080359060200190929190505050610f2c565b604051808781526020018673ffffffffffffffffffffffffffffffffffffffff1673ffffffffffffffffffffffffffffffffffffffff16815260200180602001806020018060200180602001858103855289818151815260200191508051906020019080838360005b838110156103aa57808201518184015260208101905061038f565b50505050905090810190601f1680156103d75780820380516001836020036101000a031916815260200191505b50858103845288818151815260200191508051906020019080838360005b838110156104105780820151818401526020810190506103f5565b50505050905090810190601f16801561043d5780820380516001836020036101000a031916815260200191505b50858103835287818151815260200191508051906020019080838360005b8381101561047657808201518184015260208101905061045b565b50505050905090810190601f1680156104a35780820380516001836020036101000a031916815260200191505b50858103825286818151815260200191508051906020019080838360005b838110156104dc5780820151818401526020810190506104c1565b50505050905090810190601f1680156105095780820380516001836020036101000a031916815260200191505b509a505050505050505050505060405180910390f35b34801561052b57600080fd5b506105346111e8565b005b34801561054257600080fd5b5061056f6004803603602081101561055957600080fd5b81019080803590602001909291905050506112ba565b604051808e81526020018d81526020018c81526020018b81526020018a8152602001898152602001888152602001871515151581526020018615151515815260200185151515158152602001841515151581526020018373ffffffffffffffffffffffffffffffffffffffff1673ffffffffffffffffffffffffffffffffffffffff1681526020018273ffffffffffffffffffffffffffffffffffffffff1673ffffffffffffffffffffffffffffffffffffffff1681526020019d505050505050505050505050505060405180910390f35b34801561064d57600080fd5b506106846004803603604081101561066457600080fd5b810190808035906020019092919080359060200190929190505050611394565b005b610770600480360360a081101561069c57600080fd5b810190808035906020019092919080359060200190929190803590602001906401000000008111156106cd57600080fd5b8201836020820111156106df57600080fd5b8035906020019184602083028401116401000000008311171561070157600080fd5b90919293919293908035906020019064010000000081111561072257600080fd5b82018360208201111561073457600080fd5b8035906020019184602083028401116401000000008311171561075657600080fd5b9091929391929390803590602001909291905050506114e0565b6040518082815260200191505060405180910390f35b34801561079257600080fd5b5061079b611c2f565b604051808273ffffffffffffffffffffffffffffffffffffffff1673ffffffffffffffffffffffffffffffffffffffff16815260200191505060405180910390f35b3480156107e957600080fd5b506107f2611c59565b604051808215151515815260200191505060405180910390f35b34801561081857600080fd5b5061084f6004803603604081101561082f57600080fd5b810190808035906020019092919080359060200190929190505050611cb1565b6040518082815260200191505060405180910390f35b34801561087157600080fd5b5061087a611cdf565b6040518082815260200191505060405180910390f35b34801561089c57600080fd5b506108c9600480360360208110156108b357600080fd5b8101908080359060200190929190505050611ce5565b6040518082815260200191505060405180910390f35b3480156108eb57600080fd5b506109af6004803603604081101561090257600080fd5b810190808035906020019064010000000081111561091f57600080fd5b82018360208201111561093157600080fd5b8035906020019184600183028401116401000000008311171561095357600080fd5b91908080601f016020809104026020016040519081016040528093929190818152602001838380828437600081840152601f19601f82011690508083019250505050505050919291929080359060200190929190505050611d06565b6040518082815260200191505060405180910390f35b3480156109d157600080fd5b50610a14600480360360208110156109e857600080fd5b81019080803573ffffffffffffffffffffffffffffffffffffffff169060200190929190505050611d4a565b005b8060016000828152602001908152602001600020600a0160009054906101000a900473ffffffffffffffffffffffffffffffffffffffff1673ffffffffffffffffffffffffffffffffffffffff163373ffffffffffffffffffffffffffffffffffffffff1614610a8557600080fd5b600180600084815260200190815260200160002060090160026101000a81548160ff0219169083151502179055507fe21fe02c1589242b30be2057f54fd54b7ddc463695d19ffdb54f9ebb0584f24a826040518082815260200191505060405180910390a15050565b816001600082815260200190815260200160002060090160049054906101000a900473ffffffffffffffffffffffffffffffffffffffff1673ffffffffffffffffffffffffffffffffffffffff163373ffffffffffffffffffffffffffffffffffffffff1614610b5d57600080fd5b8160016000858152602001908152602001600020600601819055507f3a622e6545397765dbff0e4c456611c14c3baa2ca120803f248e583b57f0cb86338484604051808473ffffffffffffffffffffffffffffffffffffffff1673ffffffffffffffffffffffffffffffffffffffff168152602001838152602001828152602001935050505060405180910390a1505050565b610bf8611c59565b610c0157600080fd5b6000610c0b611c2f565b90508073ffffffffffffffffffffffffffffffffffffffff166108fc479081150290604051600060405180830381858888f19350505050158015610c53573d6000803e3d6000fd5b5050565b806001600082815260200190815260200160002060090160049054906101000a900473ffffffffffffffffffffffffffffffffffffffff1673ffffffffffffffffffffffffffffffffffffffff163373ffffffffffffffffffffffffffffffffffffffff1614610cc657600080fd5b600180600084815260200190815260200160002060090160036101000a81548160ff0219169083151502179055507f0da1e3506cd52423e812adc8d0d707018a62e495b392a843f9f4fe89327aa207826040518082815260200191505060405180910390a15050565b66038d7ea4c680003414610d4257600080fd5b3360016000838152602001908152602001600020600a0160006101000a81548173ffffffffffffffffffffffffffffffffffffffff021916908373ffffffffffffffffffffffffffffffffffffffff160217905550600180600083815260200190815260200160002060090160016101000a81548160ff0219169083151502179055507fe449f09c0de7886e6b3a2f5a353335ad0b073016972863e39f0afffee9718bb8816040518082815260200191505060405180910390a150565b6004602052816000526040600020602052806000526040600020600091509150505481565b60075481565b8160016000828152602001908152602001600020600a0160009054906101000a900473ffffffffffffffffffffffffffffffffffffffff1673ffffffffffffffffffffffffffffffffffffffff163373ffffffffffffffffffffffffffffffffffffffff1614610e9957600080fd5b8160016000858152602001908152602001600020600701819055507f1029ff5a1bcbc0d375b7fd69df7b5e772f48cd26b572883d340ca4e0343f374d338484604051808473ffffffffffffffffffffffffffffffffffffffff1673ffffffffffffffffffffffffffffffffffffffff168152602001838152602001828152602001935050505060405180910390a1505050565b60006020528060005260406000206000915090508060000154908060010160009054906101000a900473ffffffffffffffffffffffffffffffffffffffff1690806002018054600181600116156101000203166002900480601f0160208091040260200160405190810160405280929190818152602001828054600181600116156101000203166002900480156110045780601f10610fd957610100808354040283529160200191611004565b820191906000526020600020905b815481529060010190602001808311610fe757829003601f168201915b505050505090806003018054600181600116156101000203166002900480601f0160208091040260200160405190810160405280929190818152602001828054600181600116156101000203166002900480156110a25780601f10611077576101008083540402835291602001916110a2565b820191906000526020600020905b81548152906001019060200180831161108557829003601f168201915b505050505090806004018054600181600116156101000203166002900480601f0160208091040260200160405190810160405280929190818152602001828054600181600116156101000203166002900480156111405780601f1061111557610100808354040283529160200191611140565b820191906000526020600020905b81548152906001019060200180831161112357829003601f168201915b505050505090806005018054600181600116156101000203166002900480601f0160208091040260200160405190810160405280929190818152602001828054600181600116156101000203166002900480156111de5780601f106111b3576101008083540402835291602001916111de565b820191906000526020600020905b8154815290600101906020018083116111c157829003601f168201915b5050505050905086565b6111f0611c59565b6111f957600080fd5b600073ffffffffffffffffffffffffffffffffffffffff16600860009054906101000a900473ffffffffffffffffffffffffffffffffffffffff1673ffffffffffffffffffffffffffffffffffffffff167f8be0079c531659141344cd1fd0a4f28419497f9722a3daafe3b4186f6b6457e060405160405180910390a36000600860006101000a81548173ffffffffffffffffffffffffffffffffffffffff021916908373ffffffffffffffffffffffffffffffffffffffff160217905550565b60016020528060005260406000206000915090508060000154908060010154908060020154908060050154908060060154908060070154908060080154908060090160009054906101000a900460ff16908060090160019054906101000a900460ff16908060090160029054906101000a900460ff16908060090160039054906101000a900460ff16908060090160049054906101000a900473ffffffffffffffffffffffffffffffffffffffff169080600a0160009054906101000a900473ffffffffffffffffffffffffffffffffffffffff1690508d565b816001600082815260200190815260200160002060090160049054906101000a900473ffffffffffffffffffffffffffffffffffffffff1673ffffffffffffffffffffffffffffffffffffffff163373ffffffffffffffffffffffffffffffffffffffff161461140357600080fd5b81600160008581526020019081526020016000206008018190555060046000600160008681526020019081526020016000206002015481526020019081526020016000206000838152602001908152602001600020600081548092919060010191905055507f5de5b514d7f99a650ed8989e72912cf0bc1d44a34828df7ef01e2ee5768fd519338484604051808473ffffffffffffffffffffffffffffffffffffffff1673ffffffffffffffffffffffffffffffffffffffff168152602001838152602001828152602001935050505060405180910390a1505050565b600080881415611a345766038d7ea4c6800034146114fd57600080fd5b60004290506007600081548092919060010191905055506007549850611521611e61565b604051806101e001604052808381526020018b81526020018a8152602001898980806020026020016040519081016040528093929190818152602001838360200280828437600081840152601f19601f820116905080830192505050505050508152602001878780806020026020016040519081016040528093929190818152602001838360200280828437600081840152601f19601f8201169050808301925050505050505081526020018581526020016000815260200160008152602001600081526020016000151581526020016000151581526020016000151581526020016000151581526020013373ffffffffffffffffffffffffffffffffffffffff168152602001600073ffffffffffffffffffffffffffffffffffffffff16815250905060058a9080600181540180825580915050906001820390600052602060002001600090919290919091505550600260008a81526020019081526020016000208a908060018154018082558091505090600182039060005260206000200160009091929091909150555080600160008c815260200190815260200160002060008201518160000155602082015181600101556040820151816002015560608201518160030190805190602001906116fc929190611f0b565b506080820151816004019080519060200190611719929190611f0b565b5060a0820151816005015560c0820151816006015560e0820151816007015561010082015181600801556101208201518160090160006101000a81548160ff0219169083151502179055506101408201518160090160016101000a81548160ff0219169083151502179055506101608201518160090160026101000a81548160ff0219169083151502179055506101808201518160090160036101000a81548160ff0219169083151502179055506101a08201518160090160046101000a81548173ffffffffffffffffffffffffffffffffffffffff021916908373ffffffffffffffffffffffffffffffffffffffff1602179055506101c082015181600a0160006101000a81548173ffffffffffffffffffffffffffffffffffffffff021916908373ffffffffffffffffffffffffffffffffffffffff1602179055509050507f45cfa9079b4dadd3c11065af779e7dd2ef9080745a293923043779a5c83ae512828b8b8b8b8b8b8b6040518089815260200188815260200187815260200180602001806020018481526020018381038352888882818152602001925060200280828437600081840152601f19601f8201169050808301925050508381038252868682818152602001925060200280828437600081840152601f19601f8201169050808301925050509a505050505050505050505060405180910390a17f35c73cb6f7c70c9c19167efaf2f874db61f0ed5daf0879e3f8cb5f4391b528e3600080600060405180848152602001838152602001828152602001935050505060405180910390a17f656ff276433355b5b1c332c53a25caaf81a96253054702695edafcda58a07e7660008060008033600060405180871515151581526020018615151515815260200185151515158152602001841515151581526020018373ffffffffffffffffffffffffffffffffffffffff1673ffffffffffffffffffffffffffffffffffffffff1681526020018273ffffffffffffffffffffffffffffffffffffffff1673ffffffffffffffffffffffffffffffffffffffff168152602001965050505050505060405180910390a18992505050611c24565b6000881115611c23576001600089815260200190815260200160002060090160049054906101000a900473ffffffffffffffffffffffffffffffffffffffff1673ffffffffffffffffffffffffffffffffffffffff163373ffffffffffffffffffffffffffffffffffffffff1614611aab57600080fd5b42600160008a81526020019081526020016000206000018190555086600160008a8152602001908152602001600020600201819055508585600160008b81526020019081526020016000206003019190611b06929190611f58565b508383600160008b81526020019081526020016000206004019190611b2c929190611f58565b5081600160008a8152602001908152602001600020600501819055507f45cfa9079b4dadd3c11065af779e7dd2ef9080745a293923043779a5c83ae512600160008a815260200190815260200160002060000154898989898989896040518089815260200188815260200187815260200180602001806020018481526020018381038352888882818152602001925060200280828437600081840152601f19601f8201169050808301925050508381038252868682818152602001925060200280828437600081840152601f19601f8201169050808301925050509a505050505050505050505060405180910390a1879050611c24565b5b979650505050505050565b6000600860009054906101000a900473ffffffffffffffffffffffffffffffffffffffff16905090565b6000600860009054906101000a900473ffffffffffffffffffffffffffffffffffffffff1673ffffffffffffffffffffffffffffffffffffffff163373ffffffffffffffffffffffffffffffffffffffff1614905090565b60026020528160005260406000208181548110611cca57fe5b90600052602060002001600091509150505481565b60065481565b60058181548110611cf257fe5b906000526020600020016000915090505481565b6003828051602081018201805184825260208301602085012081835280955050505050508181548110611d3557fe5b90600052602060002001600091509150505481565b611d52611c59565b611d5b57600080fd5b611d6481611d67565b50565b600073ffffffffffffffffffffffffffffffffffffffff168173ffffffffffffffffffffffffffffffffffffffff161415611da157600080fd5b8073ffffffffffffffffffffffffffffffffffffffff16600860009054906101000a900473ffffffffffffffffffffffffffffffffffffffff1673ffffffffffffffffffffffffffffffffffffffff167f8be0079c531659141344cd1fd0a4f28419497f9722a3daafe3b4186f6b6457e060405160405180910390a380600860006101000a81548173ffffffffffffffffffffffffffffffffffffffff021916908373ffffffffffffffffffffffffffffffffffffffff16021790555050565b604051806101e00160405280600081526020016000815260200160008152602001606081526020016060815260200160008152602001600081526020016000815260200160008152602001600015158152602001600015158152602001600015158152602001600015158152602001600073ffffffffffffffffffffffffffffffffffffffff168152602001600073ffffffffffffffffffffffffffffffffffffffff1681525090565b828054828255906000526020600020908101928215611f47579160200282015b82811115611f46578251825591602001919060010190611f2b565b5b509050611f549190611fa5565b5090565b828054828255906000526020600020908101928215611f94579160200282015b82811115611f93578235825591602001919060010190611f78565b5b509050611fa19190611fa5565b5090565b611fc791905b80821115611fc3576000816000905550600101611fab565b5090565b9056fea265627a7a72315820fc693c0ac27cce801a4df5361515000e9bbabec9ea9e15eb311e017618f9c4f464736f6c63430005100032",
  "source": "pragma solidity ^0.5.0;\r\n// pragma experimental ABIEncoderV2; \r\n\r\nimport \"./BaseData.sol\";\r\nimport \"./ownable.sol\";\r\n// import \"./safemath.sol\";\r\n\r\n// Create, edit, and view order here\r\n\r\ncontract OrderInterface is BaseData {\r\n    function GetOrderbyStoreID(uint _storeID) external view returns (uint[] memory) {\r\n        // return \r\n        return storeIDToOrder[_storeID];\r\n    }\r\n\r\n    function GetAllOrderInformation() external view returns (uint[] memory) {\r\n        // return \r\n        return AllOrderList;\r\n    }\r\n}\r\n\r\ncontract OrderContract is BaseData, Ownable {\r\n    // prevent overflow\r\n    // using SafeMath for uint256;\r\n\r\n    // declare new order event\r\n    event NewOrderBasic(uint setTime, uint orderID, uint storeID, uint[] itemsID, uint[] itemsNumber, uint tips);\r\n    event NewOrderScore(uint d_score, uint u_score, uint s_score);\r\n    event NewOrderBoolandAddr(bool isConfirmed, bool isDelivering, bool isDelivered, bool isReceived, address userAddr, address deliveryAddr);\r\n    // declare other event\r\n    event OrderDelivering(uint orderID);\r\n    event OrderDelivered(uint orderID);\r\n    event OrderReceived(uint orderID);\r\n    event UserBeenRated(address addr, uint orderID, uint score);\r\n    event DeliverymanBeenRated(address addr, uint orderID, uint score);\r\n    event StoreBeenRated(address addr, uint orderID, uint score);\r\n\r\n    uint _idDigit   = 64;\r\n    uint _idModulus = 10 ** _idDigit;\r\n\r\n    // only us can withdraw the ether user sent to this contract\r\n    function withdraw() external onlyOwner {\r\n        address payable _owner = address(uint160(owner()));\r\n        _owner.transfer(address(this).balance);\r\n    }\r\n\r\n    // only the user can modify his/her order\r\n    modifier userOf(uint _orderID) {\r\n        require(msg.sender == orderIDToOrder[_orderID].userAddr);\r\n        _;\r\n    } \r\n\r\n    // only the deliveryman can modify his/her order\r\n    modifier deliveryOf(uint _orderID) {\r\n        require(msg.sender == orderIDToOrder[_orderID].deliverymanAddr);\r\n        _;\r\n    }  \r\n\r\n    function UserSetMyOrderPost(uint _orderID, uint _storeID, uint[] calldata _itemsID, uint[] calldata _itemsNumber, uint _tipsValueMultiplicand) external payable returns(uint) {\r\n        if (_orderID == uint(0)) {\r\n            // need to pay ether\r\n            require(msg.value == 0.001 ether);\r\n            // create a new orderID via keccak256 (block.timestamp (= now), _storeID, address)\r\n            uint _updateTime = now;\r\n            orderid++;\r\n            _orderID = orderid;\r\n            Order memory newOrder = Order(_updateTime, _orderID, _storeID, _itemsID, _itemsNumber, _tipsValueMultiplicand, 0, 0, 0, false, false, false, false, msg.sender, address(0));\r\n            // add a new order into the public set\r\n            AllOrderList.push(_orderID);\r\n            // add a new order to the store\r\n            storeIDToOrder[_storeID].push(_orderID);\r\n            // mapping orderID to order\r\n            orderIDToOrder[_orderID] = newOrder;\r\n            // fire event\r\n            emit NewOrderBasic(_updateTime, _orderID, _storeID, _itemsID, _itemsNumber, _tipsValueMultiplicand);\r\n            emit NewOrderScore(0, 0, 0);\r\n            emit NewOrderBoolandAddr(false, false, false, false, msg.sender, address(0));\r\n            // return orderID\r\n            return _orderID;\r\n        } else if (_orderID > uint(0)) {\r\n            // if want to modify\r\n            require(msg.sender == orderIDToOrder[_orderID].userAddr);\r\n            orderIDToOrder[_orderID].setTime = now;\r\n            orderIDToOrder[_orderID].storeID = _storeID;\r\n            orderIDToOrder[_orderID].itemsID = _itemsID;\r\n            orderIDToOrder[_orderID].itemsNumber = _itemsNumber;\r\n            orderIDToOrder[_orderID].tipsValueMultiplicand = _tipsValueMultiplicand;\r\n            // fire new order event\r\n            emit NewOrderBasic(orderIDToOrder[_orderID].setTime, _orderID, _storeID, _itemsID, _itemsNumber, _tipsValueMultiplicand);\r\n            // return orderID\r\n            return _orderID;\r\n        }\r\n        \r\n    }\r\n\r\n    function SetOrderDelivering(uint _orderID) external payable {\r\n        // need to pay ether\r\n        require(msg.value == 0.001 ether);\r\n        // return orderID\r\n        orderIDToOrder[_orderID].deliverymanAddr = msg.sender;\r\n        orderIDToOrder[_orderID].isDelivering = true;\r\n        // fire event\r\n        emit OrderDelivering(_orderID);\r\n        // return;\r\n    }\r\n\r\n    function SetOrderDelivered(uint _orderID) external deliveryOf(_orderID) {\r\n        // assure call by deliveryman\r\n        orderIDToOrder[_orderID].isDelivered = true;\r\n        // fire event\r\n        emit OrderDelivered(_orderID);\r\n        // return;\r\n    }\r\n\r\n    function SetOrderReceived(uint _orderID) external userOf(_orderID) {\r\n        // assure call by customer\r\n        orderIDToOrder[_orderID].isReceived = true;\r\n        // fire event\r\n        emit OrderReceived(_orderID);\r\n        // return;\r\n    }\r\n\r\n    function UserRateStore(uint _orderID, uint _userToStoreScore) external userOf(_orderID) {\r\n        // return new rate\r\n        orderIDToOrder[_orderID].userToStoreScore = _userToStoreScore;\r\n        PeopleNumRateTheStar[orderIDToOrder[_orderID].storeID][_userToStoreScore]++;\r\n        // fire event\r\n        emit StoreBeenRated(msg.sender, _orderID, _userToStoreScore);\r\n        // return;\r\n    }\r\n\r\n    function UserRateDeliveryman(uint _orderID, uint _userToDeliverymanScore) external userOf(_orderID) {\r\n        // rating only int (1~256) / exp\r\n        orderIDToOrder[_orderID].userToDeliverymanScore = _userToDeliverymanScore;\r\n        // fire event\r\n        emit DeliverymanBeenRated(msg.sender, _orderID, _userToDeliverymanScore);\r\n        // return;\r\n    }\r\n\r\n    function DeliverymanRateCustomer(uint _orderID, uint _deliverymanToUserScore) external deliveryOf(_orderID) {\r\n        // rating only int (1~256) / exp\r\n        orderIDToOrder[_orderID].deliverymanToUserScore = _deliverymanToUserScore;\r\n        // fire event\r\n        emit UserBeenRated(msg.sender, _orderID, _deliverymanToUserScore);\r\n        // return;\r\n    }\r\n\r\n}\r\n",
  "sourcePath": "D:/OneDrive/NTUEE_122nd//final_project/FooDapp/contracts/Order.sol",
  "compiler": {
    "name": "solc",
    "version": "0.5.16+commit.9c3226ce.Emscripten.clang"
  },
  "schemaVersion": "3.4.0",
  "updatedAt": "2021-06-04T14:53:59.390Z",
  "devdoc": {
    "methods": {
      "isOwner()": {
        "return": "true if `msg.sender` is the owner of the contract."
      },
      "owner()": {
        "return": "the address of the owner."
      },
      "renounceOwnership()": {
        "details": "Allows the current owner to relinquish control of the contract."
      },
      "transferOwnership(address)": {
        "details": "Allows the current owner to transfer control of the contract to a newOwner.",
        "params": {
          "newOwner": "The address to transfer ownership to."
        }
      }
    }
  },
  "userdoc": {
    "methods": {
      "renounceOwnership()": {
        "notice": "Renouncing to ownership will leave the contract without an owner. It will not be possible to call the functions with the `onlyOwner` modifier anymore."
      }
    }
  }
}