{
  "contractName": "StoreInterface",
  "abi": [
    {
      "constant": true,
      "inputs": [
        {
          "internalType": "uint256",
          "name": "",
          "type": "uint256"
        }
      ],
      "name": "AllOrderList",
      "outputs": [
        {
          "internalType": "uint256",
          "name": "",
          "type": "uint256"
        }
      ],
      "payable": false,
      "stateMutability": "view",
      "type": "function"
    },
    {
      "constant": true,
      "inputs": [
        {
          "internalType": "uint256",
          "name": "",
          "type": "uint256"
        },
        {
          "internalType": "uint256",
          "name": "",
          "type": "uint256"
        }
      ],
      "name": "PeopleNumRateTheStar",
      "outputs": [
        {
          "internalType": "uint256",
          "name": "",
          "type": "uint256"
        }
      ],
      "payable": false,
      "stateMutability": "view",
      "type": "function"
    },
    {
      "constant": true,
      "inputs": [
        {
          "internalType": "string",
          "name": "",
          "type": "string"
        },
        {
          "internalType": "uint256",
          "name": "",
          "type": "uint256"
        }
      ],
      "name": "cityNameToStoreList",
      "outputs": [
        {
          "internalType": "uint256",
          "name": "",
          "type": "uint256"
        }
      ],
      "payable": false,
      "stateMutability": "view",
      "type": "function"
    },
    {
      "constant": true,
      "inputs": [
        {
          "internalType": "uint256",
          "name": "",
          "type": "uint256"
        }
      ],
      "name": "orderIDToOrder",
      "outputs": [
        {
          "internalType": "uint256",
          "name": "setTime",
          "type": "uint256"
        },
        {
          "internalType": "uint256",
          "name": "orderID",
          "type": "uint256"
        },
        {
          "internalType": "uint256",
          "name": "storeID",
          "type": "uint256"
        },
        {
          "internalType": "uint256",
          "name": "tipsValueMultiplicand",
          "type": "uint256"
        },
        {
          "internalType": "uint256",
          "name": "userToDeliverymanScore",
          "type": "uint256"
        },
        {
          "internalType": "uint256",
          "name": "deliverymanToUserScore",
          "type": "uint256"
        },
        {
          "internalType": "uint256",
          "name": "userToStoreScore",
          "type": "uint256"
        },
        {
          "internalType": "bool",
          "name": "isConfirmed",
          "type": "bool"
        },
        {
          "internalType": "bool",
          "name": "isDelivering",
          "type": "bool"
        },
        {
          "internalType": "bool",
          "name": "isDelivered",
          "type": "bool"
        },
        {
          "internalType": "bool",
          "name": "isReceived",
          "type": "bool"
        },
        {
          "internalType": "address",
          "name": "userAddr",
          "type": "address"
        },
        {
          "internalType": "address",
          "name": "deliverymanAddr",
          "type": "address"
        }
      ],
      "payable": false,
      "stateMutability": "view",
      "type": "function"
    },
    {
      "constant": true,
      "inputs": [],
      "name": "orderid",
      "outputs": [
        {
          "internalType": "uint256",
          "name": "",
          "type": "uint256"
        }
      ],
      "payable": false,
      "stateMutability": "view",
      "type": "function"
    },
    {
      "constant": true,
      "inputs": [
        {
          "internalType": "uint256",
          "name": "",
          "type": "uint256"
        },
        {
          "internalType": "uint256",
          "name": "",
          "type": "uint256"
        }
      ],
      "name": "storeIDToOrder",
      "outputs": [
        {
          "internalType": "uint256",
          "name": "",
          "type": "uint256"
        }
      ],
      "payable": false,
      "stateMutability": "view",
      "type": "function"
    },
    {
      "constant": true,
      "inputs": [
        {
          "internalType": "uint256",
          "name": "",
          "type": "uint256"
        }
      ],
      "name": "storeIDToStore",
      "outputs": [
        {
          "internalType": "uint256",
          "name": "storeID",
          "type": "uint256"
        },
        {
          "internalType": "address",
          "name": "ownerAddress",
          "type": "address"
        },
        {
          "internalType": "string",
          "name": "storeName",
          "type": "string"
        },
        {
          "internalType": "string",
          "name": "cityName",
          "type": "string"
        },
        {
          "internalType": "string",
          "name": "moreInfo",
          "type": "string"
        },
        {
          "internalType": "string",
          "name": "menu",
          "type": "string"
        }
      ],
      "payable": false,
      "stateMutability": "view",
      "type": "function"
    },
    {
      "constant": true,
      "inputs": [],
      "name": "storeid",
      "outputs": [
        {
          "internalType": "uint256",
          "name": "",
          "type": "uint256"
        }
      ],
      "payable": false,
      "stateMutability": "view",
      "type": "function"
    },
    {
      "constant": true,
      "inputs": [
        {
          "internalType": "string",
          "name": "_cityName",
          "type": "string"
        }
      ],
      "name": "UserGetAllStore",
      "outputs": [
        {
          "internalType": "uint256[]",
          "name": "",
          "type": "uint256[]"
        }
      ],
      "payable": false,
      "stateMutability": "view",
      "type": "function"
    }
  ],
  "bytecode": "0x60806040526000600655600060075534801561001a57600080fd5b50610c0a8061002a6000396000f3fe608060405234801561001057600080fd5b50600436106100935760003560e01c80639362d6dc116100665780639362d6dc146104255780639a2ef43c14610535578063c43ac47614610581578063d36f22841461059f578063ee4519a7146105e157610093565b806353a95c6c14610098578063609406b2146100e45780636c78029a1461010257806377d7fb7214610327575b600080fd5b6100ce600480360360408110156100ae57600080fd5b8101908080359060200190929190803590602001909291905050506106ba565b6040518082815260200191505060405180910390f35b6100ec6106df565b6040518082815260200191505060405180910390f35b61012e6004803603602081101561011857600080fd5b81019080803590602001909291905050506106e5565b604051808781526020018673ffffffffffffffffffffffffffffffffffffffff1673ffffffffffffffffffffffffffffffffffffffff16815260200180602001806020018060200180602001858103855289818151815260200191508051906020019080838360005b838110156101b2578082015181840152602081019050610197565b50505050905090810190601f1680156101df5780820380516001836020036101000a031916815260200191505b50858103845288818151815260200191508051906020019080838360005b838110156102185780820151818401526020810190506101fd565b50505050905090810190601f1680156102455780820380516001836020036101000a031916815260200191505b50858103835287818151815260200191508051906020019080838360005b8381101561027e578082015181840152602081019050610263565b50505050905090810190601f1680156102ab5780820380516001836020036101000a031916815260200191505b50858103825286818151815260200191508051906020019080838360005b838110156102e45780820151818401526020810190506102c9565b50505050905090810190601f1680156103115780820380516001836020036101000a031916815260200191505b509a505050505050505050505060405180910390f35b6103536004803603602081101561033d57600080fd5b81019080803590602001909291905050506109a1565b604051808e81526020018d81526020018c81526020018b81526020018a8152602001898152602001888152602001871515151581526020018615151515815260200185151515158152602001841515151581526020018373ffffffffffffffffffffffffffffffffffffffff1673ffffffffffffffffffffffffffffffffffffffff1681526020018273ffffffffffffffffffffffffffffffffffffffff1673ffffffffffffffffffffffffffffffffffffffff1681526020019d505050505050505050505050505060405180910390f35b6104de6004803603602081101561043b57600080fd5b810190808035906020019064010000000081111561045857600080fd5b82018360208201111561046a57600080fd5b8035906020019184600183028401116401000000008311171561048c57600080fd5b91908080601f016020809104026020016040519081016040528093929190818152602001838380828437600081840152601f19601f820116905080830192505050505050509192919290505050610a7b565b6040518080602001828103825283818151815260200191508051906020019060200280838360005b83811015610521578082015181840152602081019050610506565b505050509050019250505060405180910390f35b61056b6004803603604081101561054b57600080fd5b810190808035906020019092919080359060200190929190505050610b3c565b6040518082815260200191505060405180910390f35b610589610b6a565b6040518082815260200191505060405180910390f35b6105cb600480360360208110156105b557600080fd5b8101908080359060200190929190505050610b70565b6040518082815260200191505060405180910390f35b6106a4600480360360408110156105f757600080fd5b810190808035906020019064010000000081111561061457600080fd5b82018360208201111561062657600080fd5b8035906020019184600183028401116401000000008311171561064857600080fd5b91908080601f016020809104026020016040519081016040528093929190818152602001838380828437600081840152601f19601f82011690508083019250505050505050919291929080359060200190929190505050610b91565b6040518082815260200191505060405180910390f35b6004602052816000526040600020602052806000526040600020600091509150505481565b60075481565b60006020528060005260406000206000915090508060000154908060010160009054906101000a900473ffffffffffffffffffffffffffffffffffffffff1690806002018054600181600116156101000203166002900480601f0160208091040260200160405190810160405280929190818152602001828054600181600116156101000203166002900480156107bd5780601f10610792576101008083540402835291602001916107bd565b820191906000526020600020905b8154815290600101906020018083116107a057829003601f168201915b505050505090806003018054600181600116156101000203166002900480601f01602080910402602001604051908101604052809291908181526020018280546001816001161561010002031660029004801561085b5780601f106108305761010080835404028352916020019161085b565b820191906000526020600020905b81548152906001019060200180831161083e57829003601f168201915b505050505090806004018054600181600116156101000203166002900480601f0160208091040260200160405190810160405280929190818152602001828054600181600116156101000203166002900480156108f95780601f106108ce576101008083540402835291602001916108f9565b820191906000526020600020905b8154815290600101906020018083116108dc57829003601f168201915b505050505090806005018054600181600116156101000203166002900480601f0160208091040260200160405190810160405280929190818152602001828054600181600116156101000203166002900480156109975780601f1061096c57610100808354040283529160200191610997565b820191906000526020600020905b81548152906001019060200180831161097a57829003601f168201915b5050505050905086565b60016020528060005260406000206000915090508060000154908060010154908060020154908060050154908060060154908060070154908060080154908060090160009054906101000a900460ff16908060090160019054906101000a900460ff16908060090160029054906101000a900460ff16908060090160039054906101000a900460ff16908060090160049054906101000a900473ffffffffffffffffffffffffffffffffffffffff169080600a0160009054906101000a900473ffffffffffffffffffffffffffffffffffffffff1690508d565b60606003826040518082805190602001908083835b60208310610ab35780518252602082019150602081019050602083039250610a90565b6001836020036101000a0380198251168184511680821785525050505050509050019150509081526020016040518091039020805480602002602001604051908101604052809291908181526020018280548015610b3057602002820191906000526020600020905b815481526020019060010190808311610b1c575b50505050509050919050565b60026020528160005260406000208181548110610b5557fe5b90600052602060002001600091509150505481565b60065481565b60058181548110610b7d57fe5b906000526020600020016000915090505481565b6003828051602081018201805184825260208301602085012081835280955050505050508181548110610bc057fe5b9060005260206000200160009150915050548156fea265627a7a7231582052c8f3608567fe931d65053177a64636494dd367b268a6c71583867abe53958164736f6c63430005100032",
  "source": "pragma solidity ^0.5.0;\r\n// pragma experimental ABIEncoderV2;\r\n\r\nimport \"./BaseData.sol\";\r\nimport \"./ownable.sol\";\r\n// import \"./safemath.sol\";\r\n\r\n// Create, edit, and view store here\r\n\r\ncontract StoreInterface is BaseData {\r\n    function UserGetAllStore(string memory _cityName) public view returns(uint[] memory) {\r\n        // return storeID[]\r\n        return cityNameToStoreList[_cityName];\r\n    }\r\n}\r\n\r\ncontract StoreContract is BaseData, Ownable {\r\n    // prevent overflow\r\n    // using SafeMath for uint256;\r\n\r\n    // declare event\r\n    event NewStore(uint storeID, address ownerAddress, string storeName, string cityName, string moreInfo, string menu);\r\n    event OrderConfirmed(uint orderID);\r\n\r\n    uint _idDigit   = 64;\r\n    uint _idModulus = 10 ** _idDigit;\r\n\r\n    // only us can withdraw the ether user sent to this contract\r\n    function withdraw() external onlyOwner {\r\n        address payable _owner = address(uint160(owner()));\r\n        _owner.transfer(address(this).balance);\r\n    }\r\n\r\n    function StoreSetStore(uint _storeID, string calldata _storeName, string calldata _cityName, string calldata _moreInfo, string calldata _menu) external payable returns(uint) {\r\n        if (_storeID == uint(0)){\r\n            // need to pay ether\r\n            require(msg.value == 0.001 ether);\r\n            // create a new storeID via keccak256 (_storeName, _cityName), hence, only you change the storename and cityname will affect the storeID\r\n            storeid++;\r\n            _storeID = storeid;\r\n            // default every rating star with 0 people\r\n            for (uint i = 1 ; i != 6 ; i++) {\r\n                PeopleNumRateTheStar[_storeID][i] = 0;\r\n            }\r\n            Store memory newStore = Store(_storeID, msg.sender, _storeName, _cityName, _moreInfo, _menu);\r\n            // add a new store into the public set\r\n            cityNameToStoreList[_cityName].push(_storeID);\r\n            // mapping storeID to store\r\n            storeIDToStore[_storeID] = newStore;\r\n            // fire event\r\n            emit NewStore(_storeID, msg.sender, _storeName, _cityName, _moreInfo, _menu);\r\n            // return storeID\r\n            return _storeID;\r\n        } else if (_storeID > uint(0)) {\r\n            // if want to modify\r\n            require(msg.sender == storeIDToStore[_storeID].ownerAddress);\r\n            storeIDToStore[_storeID].storeName = _storeName;\r\n            storeIDToStore[_storeID].cityName = _cityName;\r\n            storeIDToStore[_storeID].moreInfo = _moreInfo;\r\n            storeIDToStore[_storeID].menu = _menu;\r\n            // fire event\r\n            emit NewStore(_storeID, msg.sender, _storeName, _cityName, _moreInfo, _menu);\r\n            // return storeID\r\n            return _storeID;\r\n        }\r\n    }\r\n\r\n    function StoreSetOrderConfirm(uint _orderID) external {\r\n        // assure call by store of the order\r\n        orderIDToOrder[_orderID].isConfirmed = true;\r\n        // fire event\r\n        emit OrderConfirmed(_orderID);\r\n        // return;\r\n    }\r\n}\r\n",
  "sourcePath": "D:/OneDrive/NTUEE_122nd/網多實驗/final_project/FooDapp/contracts/Store.sol",
  "compiler": {
    "name": "solc",
    "version": "0.5.16+commit.9c3226ce.Emscripten.clang"
  },
  "schemaVersion": "3.4.0",
  "updatedAt": "2021-06-04T14:58:18.523Z",
  "devdoc": {
    "methods": {}
  },
  "userdoc": {
    "methods": {}
  }
}