{
  "contractName": "StoreContract",
  "abi": [
    {
      "anonymous": false,
      "inputs": [
        {
          "indexed": false,
          "internalType": "uint256",
          "name": "storeID",
          "type": "uint256"
        },
        {
          "indexed": false,
          "internalType": "address",
          "name": "ownerAddress",
          "type": "address"
        },
        {
          "indexed": false,
          "internalType": "string",
          "name": "storeName",
          "type": "string"
        },
        {
          "indexed": false,
          "internalType": "string",
          "name": "cityName",
          "type": "string"
        },
        {
          "indexed": false,
          "internalType": "string",
          "name": "moreInfo",
          "type": "string"
        },
        {
          "indexed": false,
          "internalType": "string",
          "name": "menu",
          "type": "string"
        }
      ],
      "name": "NewStore",
      "type": "event"
    },
    {
      "anonymous": false,
      "inputs": [
        {
          "indexed": false,
          "internalType": "uint256",
          "name": "orderID",
          "type": "uint256"
        }
      ],
      "name": "OrderConfirmed",
      "type": "event"
    },
    {
      "anonymous": false,
      "inputs": [
        {
          "indexed": true,
          "internalType": "address",
          "name": "previousOwner",
          "type": "address"
        },
        {
          "indexed": true,
          "internalType": "address",
          "name": "newOwner",
          "type": "address"
        }
      ],
      "name": "OwnershipTransferred",
      "type": "event"
    },
    {
      "constant": true,
      "inputs": [
        {
          "internalType": "uint256",
          "name": "",
          "type": "uint256"
        }
      ],
      "name": "AllOrderList",
      "outputs": [
        {
          "internalType": "uint256",
          "name": "",
          "type": "uint256"
        }
      ],
      "payable": false,
      "stateMutability": "view",
      "type": "function"
    },
    {
      "constant": true,
      "inputs": [
        {
          "internalType": "uint256",
          "name": "",
          "type": "uint256"
        },
        {
          "internalType": "uint256",
          "name": "",
          "type": "uint256"
        }
      ],
      "name": "PeopleNumRateTheStar",
      "outputs": [
        {
          "internalType": "uint256",
          "name": "",
          "type": "uint256"
        }
      ],
      "payable": false,
      "stateMutability": "view",
      "type": "function"
    },
    {
      "constant": true,
      "inputs": [
        {
          "internalType": "string",
          "name": "",
          "type": "string"
        },
        {
          "internalType": "uint256",
          "name": "",
          "type": "uint256"
        }
      ],
      "name": "cityNameToStoreList",
      "outputs": [
        {
          "internalType": "uint256",
          "name": "",
          "type": "uint256"
        }
      ],
      "payable": false,
      "stateMutability": "view",
      "type": "function"
    },
    {
      "constant": true,
      "inputs": [],
      "name": "isOwner",
      "outputs": [
        {
          "internalType": "bool",
          "name": "",
          "type": "bool"
        }
      ],
      "payable": false,
      "stateMutability": "view",
      "type": "function"
    },
    {
      "constant": true,
      "inputs": [
        {
          "internalType": "uint256",
          "name": "",
          "type": "uint256"
        }
      ],
      "name": "orderIDToOrder",
      "outputs": [
        {
          "internalType": "uint256",
          "name": "setTime",
          "type": "uint256"
        },
        {
          "internalType": "uint256",
          "name": "orderID",
          "type": "uint256"
        },
        {
          "internalType": "uint256",
          "name": "storeID",
          "type": "uint256"
        },
        {
          "internalType": "uint256",
          "name": "tipsValueMultiplicand",
          "type": "uint256"
        },
        {
          "internalType": "uint256",
          "name": "userToDeliverymanScore",
          "type": "uint256"
        },
        {
          "internalType": "uint256",
          "name": "deliverymanToUserScore",
          "type": "uint256"
        },
        {
          "internalType": "uint256",
          "name": "userToStoreScore",
          "type": "uint256"
        },
        {
          "internalType": "bool",
          "name": "isConfirmed",
          "type": "bool"
        },
        {
          "internalType": "bool",
          "name": "isDelivering",
          "type": "bool"
        },
        {
          "internalType": "bool",
          "name": "isDelivered",
          "type": "bool"
        },
        {
          "internalType": "bool",
          "name": "isReceived",
          "type": "bool"
        },
        {
          "internalType": "address",
          "name": "userAddr",
          "type": "address"
        },
        {
          "internalType": "address",
          "name": "deliverymanAddr",
          "type": "address"
        }
      ],
      "payable": false,
      "stateMutability": "view",
      "type": "function"
    },
    {
      "constant": true,
      "inputs": [],
      "name": "orderid",
      "outputs": [
        {
          "internalType": "uint256",
          "name": "",
          "type": "uint256"
        }
      ],
      "payable": false,
      "stateMutability": "view",
      "type": "function"
    },
    {
      "constant": true,
      "inputs": [],
      "name": "owner",
      "outputs": [
        {
          "internalType": "address",
          "name": "",
          "type": "address"
        }
      ],
      "payable": false,
      "stateMutability": "view",
      "type": "function"
    },
    {
      "constant": false,
      "inputs": [],
      "name": "renounceOwnership",
      "outputs": [],
      "payable": false,
      "stateMutability": "nonpayable",
      "type": "function"
    },
    {
      "constant": true,
      "inputs": [
        {
          "internalType": "uint256",
          "name": "",
          "type": "uint256"
        },
        {
          "internalType": "uint256",
          "name": "",
          "type": "uint256"
        }
      ],
      "name": "storeIDToOrder",
      "outputs": [
        {
          "internalType": "uint256",
          "name": "",
          "type": "uint256"
        }
      ],
      "payable": false,
      "stateMutability": "view",
      "type": "function"
    },
    {
      "constant": true,
      "inputs": [
        {
          "internalType": "uint256",
          "name": "",
          "type": "uint256"
        }
      ],
      "name": "storeIDToStore",
      "outputs": [
        {
          "internalType": "uint256",
          "name": "storeID",
          "type": "uint256"
        },
        {
          "internalType": "address",
          "name": "ownerAddress",
          "type": "address"
        },
        {
          "internalType": "string",
          "name": "storeName",
          "type": "string"
        },
        {
          "internalType": "string",
          "name": "cityName",
          "type": "string"
        },
        {
          "internalType": "string",
          "name": "moreInfo",
          "type": "string"
        },
        {
          "internalType": "string",
          "name": "menu",
          "type": "string"
        }
      ],
      "payable": false,
      "stateMutability": "view",
      "type": "function"
    },
    {
      "constant": true,
      "inputs": [],
      "name": "storeid",
      "outputs": [
        {
          "internalType": "uint256",
          "name": "",
          "type": "uint256"
        }
      ],
      "payable": false,
      "stateMutability": "view",
      "type": "function"
    },
    {
      "constant": false,
      "inputs": [
        {
          "internalType": "address",
          "name": "newOwner",
          "type": "address"
        }
      ],
      "name": "transferOwnership",
      "outputs": [],
      "payable": false,
      "stateMutability": "nonpayable",
      "type": "function"
    },
    {
      "constant": false,
      "inputs": [],
      "name": "withdraw",
      "outputs": [],
      "payable": false,
      "stateMutability": "nonpayable",
      "type": "function"
    },
    {
      "constant": false,
      "inputs": [
        {
          "internalType": "uint256",
          "name": "_storeID",
          "type": "uint256"
        },
        {
          "internalType": "string",
          "name": "_storeName",
          "type": "string"
        },
        {
          "internalType": "string",
          "name": "_cityName",
          "type": "string"
        },
        {
          "internalType": "string",
          "name": "_moreInfo",
          "type": "string"
        },
        {
          "internalType": "string",
          "name": "_menu",
          "type": "string"
        }
      ],
      "name": "StoreSetStore",
      "outputs": [
        {
          "internalType": "uint256",
          "name": "",
          "type": "uint256"
        }
      ],
      "payable": true,
      "stateMutability": "payable",
      "type": "function"
    },
    {
      "constant": false,
      "inputs": [
        {
          "internalType": "uint256",
          "name": "_orderID",
          "type": "uint256"
        }
      ],
      "name": "StoreSetOrderConfirm",
      "outputs": [],
      "payable": false,
      "stateMutability": "nonpayable",
      "type": "function"
    }
  ],
  "bytecode": "0x6080604052600060065560006007556040600955600954600a0a600a5533600860006101000a81548173ffffffffffffffffffffffffffffffffffffffff021916908373ffffffffffffffffffffffffffffffffffffffff160217905550600860009054906101000a900473ffffffffffffffffffffffffffffffffffffffff1673ffffffffffffffffffffffffffffffffffffffff16600073ffffffffffffffffffffffffffffffffffffffff167f8be0079c531659141344cd1fd0a4f28419497f9722a3daafe3b4186f6b6457e060405160405180910390a361191a806100e96000396000f3fe6080604052600436106100e85760003560e01c80638da5cb5b1161008a578063d36f228411610059578063d36f22841461077c578063ea6fbcbe146107cb578063ee4519a714610806578063f2fde38b146108ec576100e8565b80638da5cb5b146106725780638f32d59b146106c95780639a2ef43c146106f8578063c43ac47614610751576100e8565b8063609406b2116100c6578063609406b2146102f35780636c78029a1461031e578063715018a61461055057806377d7fb7214610567576100e8565b80633ccfd60b146100ed57806353a95c6c1461010457806354fbd32c1461015d575b600080fd5b3480156100f957600080fd5b5061010261093d565b005b34801561011057600080fd5b506101476004803603604081101561012757600080fd5b8101908080359060200190929190803590602001909291905050506109a4565b6040518082815260200191505060405180910390f35b6102dd600480360360a081101561017357600080fd5b81019080803590602001909291908035906020019064010000000081111561019a57600080fd5b8201836020820111156101ac57600080fd5b803590602001918460018302840111640100000000831117156101ce57600080fd5b9091929391929390803590602001906401000000008111156101ef57600080fd5b82018360208201111561020157600080fd5b8035906020019184600183028401116401000000008311171561022357600080fd5b90919293919293908035906020019064010000000081111561024457600080fd5b82018360208201111561025657600080fd5b8035906020019184600183028401116401000000008311171561027857600080fd5b90919293919293908035906020019064010000000081111561029957600080fd5b8201836020820111156102ab57600080fd5b803590602001918460018302840111640100000000831117156102cd57600080fd5b90919293919293905050506109c9565b6040518082815260200191505060405180910390f35b3480156102ff57600080fd5b5061030861106c565b6040518082815260200191505060405180910390f35b34801561032a57600080fd5b506103576004803603602081101561034157600080fd5b8101908080359060200190929190505050611072565b604051808781526020018673ffffffffffffffffffffffffffffffffffffffff1673ffffffffffffffffffffffffffffffffffffffff16815260200180602001806020018060200180602001858103855289818151815260200191508051906020019080838360005b838110156103db5780820151818401526020810190506103c0565b50505050905090810190601f1680156104085780820380516001836020036101000a031916815260200191505b50858103845288818151815260200191508051906020019080838360005b83811015610441578082015181840152602081019050610426565b50505050905090810190601f16801561046e5780820380516001836020036101000a031916815260200191505b50858103835287818151815260200191508051906020019080838360005b838110156104a757808201518184015260208101905061048c565b50505050905090810190601f1680156104d45780820380516001836020036101000a031916815260200191505b50858103825286818151815260200191508051906020019080838360005b8381101561050d5780820151818401526020810190506104f2565b50505050905090810190601f16801561053a5780820380516001836020036101000a031916815260200191505b509a505050505050505050505060405180910390f35b34801561055c57600080fd5b5061056561132e565b005b34801561057357600080fd5b506105a06004803603602081101561058a57600080fd5b8101908080359060200190929190505050611400565b604051808e81526020018d81526020018c81526020018b81526020018a8152602001898152602001888152602001871515151581526020018615151515815260200185151515158152602001841515151581526020018373ffffffffffffffffffffffffffffffffffffffff1673ffffffffffffffffffffffffffffffffffffffff1681526020018273ffffffffffffffffffffffffffffffffffffffff1673ffffffffffffffffffffffffffffffffffffffff1681526020019d505050505050505050505050505060405180910390f35b34801561067e57600080fd5b506106876114da565b604051808273ffffffffffffffffffffffffffffffffffffffff1673ffffffffffffffffffffffffffffffffffffffff16815260200191505060405180910390f35b3480156106d557600080fd5b506106de611504565b604051808215151515815260200191505060405180910390f35b34801561070457600080fd5b5061073b6004803603604081101561071b57600080fd5b81019080803590602001909291908035906020019092919050505061155c565b6040518082815260200191505060405180910390f35b34801561075d57600080fd5b5061076661158a565b6040518082815260200191505060405180910390f35b34801561078857600080fd5b506107b56004803603602081101561079f57600080fd5b8101908080359060200190929190505050611590565b6040518082815260200191505060405180910390f35b3480156107d757600080fd5b50610804600480360360208110156107ee57600080fd5b81019080803590602001909291905050506115b1565b005b34801561081257600080fd5b506108d66004803603604081101561082957600080fd5b810190808035906020019064010000000081111561084657600080fd5b82018360208201111561085857600080fd5b8035906020019184600183028401116401000000008311171561087a57600080fd5b91908080601f016020809104026020016040519081016040528093929190818152602001838380828437600081840152601f19601f82011690508083019250505050505050919291929080359060200190929190505050611619565b6040518082815260200191505060405180910390f35b3480156108f857600080fd5b5061093b6004803603602081101561090f57600080fd5b81019080803573ffffffffffffffffffffffffffffffffffffffff16906020019092919050505061165d565b005b610945611504565b61094e57600080fd5b60006109586114da565b90508073ffffffffffffffffffffffffffffffffffffffff166108fc479081150290604051600060405180830381858888f193505050501580156109a0573d6000803e3d6000fd5b5050565b6004602052816000526040600020602052806000526040600020600091509150505481565b6000808a1415610e115766038d7ea4c6800034146109e657600080fd5b60066000815480929190600101919050555060065499506000600190505b60068114610a43576000600460008d81526020019081526020016000206000838152602001908152602001600020819055508080600101915050610a04565b50610a4c611774565b6040518060c001604052808c81526020013373ffffffffffffffffffffffffffffffffffffffff1681526020018b8b8080601f016020809104026020016040519081016040528093929190818152602001838380828437600081840152601f19601f82011690508083019250505050505050815260200189898080601f016020809104026020016040519081016040528093929190818152602001838380828437600081840152601f19601f82011690508083019250505050505050815260200187878080601f016020809104026020016040519081016040528093929190818152602001838380828437600081840152601f19601f82011690508083019250505050505050815260200185858080601f016020809104026020016040519081016040528093929190818152602001838380828437600081840152601f19601f8201169050808301925050505050505081525090506003888860405180838380828437808301925050509250505090815260200160405180910390208b9080600181540180825580915050906001820390600052602060002001600090919290919091505550806000808d81526020019081526020016000206000820151816000015560208201518160010160006101000a81548173ffffffffffffffffffffffffffffffffffffffff021916908373ffffffffffffffffffffffffffffffffffffffff1602179055506040820151816002019080519060200190610c729291906117c0565b506060820151816003019080519060200190610c8f9291906117c0565b506080820151816004019080519060200190610cac9291906117c0565b5060a0820151816005019080519060200190610cc99291906117c0565b509050507fad5eb7a8cef108a44cdae7039b6f9583e7c8989bdaf322ac2fb0e5c3e88dad0d8b338c8c8c8c8c8c8c8c604051808b81526020018a73ffffffffffffffffffffffffffffffffffffffff1673ffffffffffffffffffffffffffffffffffffffff1681526020018060200180602001806020018060200185810385528d8d82818152602001925080828437600081840152601f19601f82011690508083019250505085810384528b8b82818152602001925080828437600081840152601f19601f8201169050808301925050508581038352898982818152602001925080828437600081840152601f19601f8201169050808301925050508581038252878782818152602001925080828437600081840152601f19601f8201169050808301925050509e50505050505050505050505050505060405180910390a18a91505061105f565b60008a111561105e576000808b815260200190815260200160002060010160009054906101000a900473ffffffffffffffffffffffffffffffffffffffff1673ffffffffffffffffffffffffffffffffffffffff163373ffffffffffffffffffffffffffffffffffffffff1614610e8757600080fd5b88886000808d81526020019081526020016000206002019190610eab929190611840565b5086866000808d81526020019081526020016000206003019190610ed0929190611840565b5084846000808d81526020019081526020016000206004019190610ef5929190611840565b5082826000808d81526020019081526020016000206005019190610f1a929190611840565b507fad5eb7a8cef108a44cdae7039b6f9583e7c8989bdaf322ac2fb0e5c3e88dad0d8a338b8b8b8b8b8b8b8b604051808b81526020018a73ffffffffffffffffffffffffffffffffffffffff1673ffffffffffffffffffffffffffffffffffffffff1681526020018060200180602001806020018060200185810385528d8d82818152602001925080828437600081840152601f19601f82011690508083019250505085810384528b8b82818152602001925080828437600081840152601f19601f8201169050808301925050508581038352898982818152602001925080828437600081840152601f19601f8201169050808301925050508581038252878782818152602001925080828437600081840152601f19601f8201169050808301925050509e50505050505050505050505050505060405180910390a189905061105f565b5b9998505050505050505050565b60075481565b60006020528060005260406000206000915090508060000154908060010160009054906101000a900473ffffffffffffffffffffffffffffffffffffffff1690806002018054600181600116156101000203166002900480601f01602080910402602001604051908101604052809291908181526020018280546001816001161561010002031660029004801561114a5780601f1061111f5761010080835404028352916020019161114a565b820191906000526020600020905b81548152906001019060200180831161112d57829003601f168201915b505050505090806003018054600181600116156101000203166002900480601f0160208091040260200160405190810160405280929190818152602001828054600181600116156101000203166002900480156111e85780601f106111bd576101008083540402835291602001916111e8565b820191906000526020600020905b8154815290600101906020018083116111cb57829003601f168201915b505050505090806004018054600181600116156101000203166002900480601f0160208091040260200160405190810160405280929190818152602001828054600181600116156101000203166002900480156112865780601f1061125b57610100808354040283529160200191611286565b820191906000526020600020905b81548152906001019060200180831161126957829003601f168201915b505050505090806005018054600181600116156101000203166002900480601f0160208091040260200160405190810160405280929190818152602001828054600181600116156101000203166002900480156113245780601f106112f957610100808354040283529160200191611324565b820191906000526020600020905b81548152906001019060200180831161130757829003601f168201915b5050505050905086565b611336611504565b61133f57600080fd5b600073ffffffffffffffffffffffffffffffffffffffff16600860009054906101000a900473ffffffffffffffffffffffffffffffffffffffff1673ffffffffffffffffffffffffffffffffffffffff167f8be0079c531659141344cd1fd0a4f28419497f9722a3daafe3b4186f6b6457e060405160405180910390a36000600860006101000a81548173ffffffffffffffffffffffffffffffffffffffff021916908373ffffffffffffffffffffffffffffffffffffffff160217905550565b60016020528060005260406000206000915090508060000154908060010154908060020154908060050154908060060154908060070154908060080154908060090160009054906101000a900460ff16908060090160019054906101000a900460ff16908060090160029054906101000a900460ff16908060090160039054906101000a900460ff16908060090160049054906101000a900473ffffffffffffffffffffffffffffffffffffffff169080600a0160009054906101000a900473ffffffffffffffffffffffffffffffffffffffff1690508d565b6000600860009054906101000a900473ffffffffffffffffffffffffffffffffffffffff16905090565b6000600860009054906101000a900473ffffffffffffffffffffffffffffffffffffffff1673ffffffffffffffffffffffffffffffffffffffff163373ffffffffffffffffffffffffffffffffffffffff1614905090565b6002602052816000526040600020818154811061157557fe5b90600052602060002001600091509150505481565b60065481565b6005818154811061159d57fe5b906000526020600020016000915090505481565b600180600083815260200190815260200160002060090160006101000a81548160ff0219169083151502179055507faf50e0923cf2eedda3dc56c3d4d73b4d920cee133cd920ffb873db233abecb0c816040518082815260200191505060405180910390a150565b600382805160208101820180518482526020830160208501208183528095505050505050818154811061164857fe5b90600052602060002001600091509150505481565b611665611504565b61166e57600080fd5b6116778161167a565b50565b600073ffffffffffffffffffffffffffffffffffffffff168173ffffffffffffffffffffffffffffffffffffffff1614156116b457600080fd5b8073ffffffffffffffffffffffffffffffffffffffff16600860009054906101000a900473ffffffffffffffffffffffffffffffffffffffff1673ffffffffffffffffffffffffffffffffffffffff167f8be0079c531659141344cd1fd0a4f28419497f9722a3daafe3b4186f6b6457e060405160405180910390a380600860006101000a81548173ffffffffffffffffffffffffffffffffffffffff021916908373ffffffffffffffffffffffffffffffffffffffff16021790555050565b6040518060c0016040528060008152602001600073ffffffffffffffffffffffffffffffffffffffff168152602001606081526020016060815260200160608152602001606081525090565b828054600181600116156101000203166002900490600052602060002090601f016020900481019282601f1061180157805160ff191683800117855561182f565b8280016001018555821561182f579182015b8281111561182e578251825591602001919060010190611813565b5b50905061183c91906118c0565b5090565b828054600181600116156101000203166002900490600052602060002090601f016020900481019282601f1061188157803560ff19168380011785556118af565b828001600101855582156118af579182015b828111156118ae578235825591602001919060010190611893565b5b5090506118bc91906118c0565b5090565b6118e291905b808211156118de5760008160009055506001016118c6565b5090565b9056fea265627a7a72315820fc30d6300465f4d570f8e6118dc56e34d8ad77c5ff6979fb431091d49b70849064736f6c63430005100032",
  "source": "pragma solidity ^0.5.0;\r\n// pragma experimental ABIEncoderV2;\r\n\r\nimport \"./BaseData.sol\";\r\nimport \"./ownable.sol\";\r\n// import \"./safemath.sol\";\r\n\r\n// Create, edit, and view store here\r\n\r\ncontract StoreInterface is BaseData {\r\n    function UserGetAllStore(string memory _cityName) public view returns(uint[] memory) {\r\n        // return storeID[]\r\n        return cityNameToStoreList[_cityName];\r\n    }\r\n}\r\n\r\ncontract StoreContract is BaseData, Ownable {\r\n    // prevent overflow\r\n    // using SafeMath for uint256;\r\n\r\n    // declare event\r\n    event NewStore(uint storeID, address ownerAddress, string storeName, string cityName, string moreInfo, string menu);\r\n    event OrderConfirmed(uint orderID);\r\n\r\n    uint _idDigit   = 64;\r\n    uint _idModulus = 10 ** _idDigit;\r\n\r\n    // only us can withdraw the ether user sent to this contract\r\n    function withdraw() external onlyOwner {\r\n        address payable _owner = address(uint160(owner()));\r\n        _owner.transfer(address(this).balance);\r\n    }\r\n\r\n    function StoreSetStore(uint _storeID, string calldata _storeName, string calldata _cityName, string calldata _moreInfo, string calldata _menu) external payable returns(uint) {\r\n        if (_storeID == uint(0)){\r\n            // need to pay ether\r\n            require(msg.value == 0.001 ether);\r\n            // create a new storeID via keccak256 (_storeName, _cityName), hence, only you change the storename and cityname will affect the storeID\r\n            storeid++;\r\n            _storeID = storeid;\r\n            // default every rating star with 0 people\r\n            for (uint i = 1 ; i != 6 ; i++) {\r\n                PeopleNumRateTheStar[_storeID][i] = 0;\r\n            }\r\n            Store memory newStore = Store(_storeID, msg.sender, _storeName, _cityName, _moreInfo, _menu);\r\n            // add a new store into the public set\r\n            cityNameToStoreList[_cityName].push(_storeID);\r\n            // mapping storeID to store\r\n            storeIDToStore[_storeID] = newStore;\r\n            // fire event\r\n            emit NewStore(_storeID, msg.sender, _storeName, _cityName, _moreInfo, _menu);\r\n            // return storeID\r\n            return _storeID;\r\n        } else if (_storeID > uint(0)) {\r\n            // if want to modify\r\n            require(msg.sender == storeIDToStore[_storeID].ownerAddress);\r\n            storeIDToStore[_storeID].storeName = _storeName;\r\n            storeIDToStore[_storeID].cityName = _cityName;\r\n            storeIDToStore[_storeID].moreInfo = _moreInfo;\r\n            storeIDToStore[_storeID].menu = _menu;\r\n            // fire event\r\n            emit NewStore(_storeID, msg.sender, _storeName, _cityName, _moreInfo, _menu);\r\n            // return storeID\r\n            return _storeID;\r\n        }\r\n    }\r\n\r\n    function StoreSetOrderConfirm(uint _orderID) external {\r\n        // assure call by store of the order\r\n        orderIDToOrder[_orderID].isConfirmed = true;\r\n        // fire event\r\n        emit OrderConfirmed(_orderID);\r\n        // return;\r\n    }\r\n}\r\n",
  "sourcePath": "D:/OneDrive/NTUEE_122nd//final_project/FooDapp/contracts/Store.sol",
  "compiler": {
    "name": "solc",
    "version": "0.5.16+commit.9c3226ce.Emscripten.clang"
  },
  "schemaVersion": "3.4.0",
  "updatedAt": "2021-06-04T14:58:18.513Z",
  "devdoc": {
    "methods": {
      "isOwner()": {
        "return": "true if `msg.sender` is the owner of the contract."
      },
      "owner()": {
        "return": "the address of the owner."
      },
      "renounceOwnership()": {
        "details": "Allows the current owner to relinquish control of the contract."
      },
      "transferOwnership(address)": {
        "details": "Allows the current owner to transfer control of the contract to a newOwner.",
        "params": {
          "newOwner": "The address to transfer ownership to."
        }
      }
    }
  },
  "userdoc": {
    "methods": {
      "renounceOwnership()": {
        "notice": "Renouncing to ownership will leave the contract without an owner. It will not be possible to call the functions with the `onlyOwner` modifier anymore."
      }
    }
  }
}